{
  "transactions": [
    {
      "hash": "0x1e2dbba0046ceb223424c123754651bf85c84aef42f73eac6922fe89f6f66169",
      "transactionType": "CALL",
      "contractName": "LinkToken",
      "contractAddress": "0x779877a7b0d9e8603169ddbd7836e478b4624789",
      "function": "transferAndCall(address,uint256,bytes)",
      "arguments": [
        "0x9DdfaCa8183c41ad55329BdeeD9F6A8d53168B1B",
        "30000000000000000000",
        "0x46948aae1c826cbf64cab7c9b08944ab942c7c4f4bc59f10ba09f9e437c9d4d2"
      ],
      "transaction": {
        "from": "0xaa7ba678c659433b1b3ae0237180b8da7b288718",
        "to": "0x779877a7b0d9e8603169ddbd7836e478b4624789",
        "gas": "0x16060",
        "value": "0x0",
        "input": "0x4000aea00000000000000000000000009ddfaca8183c41ad55329bdeed9f6a8d53168b1b000000000000000000000000000000000000000000000001a055690d9db800000000000000000000000000000000000000000000000000000000000000000060000000000000000000000000000000000000000000000000000000000000002046948aae1c826cbf64cab7c9b08944ab942c7c4f4bc59f10ba09f9e437c9d4d2",
        "nonce": "0x12b",
        "chainId": "0xaa36a7"
      },
      "additionalContracts": [],
      "isFixedGasLimit": false
    }
  ],
  "receipts": [
    {
      "status": "0x1",
      "cumulativeGasUsed": "0x150cbe6",
      "logs": [
        {
          "address": "0x779877a7b0d9e8603169ddbd7836e478b4624789",
          "topics": [
            "0xddf252ad1be2c89b69c2b068fc378daa952ba7f163c4a11628f55a4df523b3ef",
            "0x000000000000000000000000aa7ba678c659433b1b3ae0237180b8da7b288718",
            "0x0000000000000000000000009ddfaca8183c41ad55329bdeed9f6a8d53168b1b"
          ],
          "data": "0x000000000000000000000000000000000000000000000001a055690d9db80000",
          "blockHash": "0xe8d093068dc08da5188707c948140c425ec665c1cc7614634bfdff0ac1f09daa",
          "blockNumber": "0x7010ea",
          "transactionHash": "0x1e2dbba0046ceb223424c123754651bf85c84aef42f73eac6922fe89f6f66169",
          "transactionIndex": "0x69",
          "logIndex": "0xe8",
          "removed": false
        },
        {
          "address": "0x779877a7b0d9e8603169ddbd7836e478b4624789",
          "topics": [
            "0xe19260aff97b920c7df27010903aeb9c8d2be5d310a2c67824cf3f15396e4c16",
            "0x000000000000000000000000aa7ba678c659433b1b3ae0237180b8da7b288718",
            "0x0000000000000000000000009ddfaca8183c41ad55329bdeed9f6a8d53168b1b"
          ],
          "data": "0x000000000000000000000000000000000000000000000001a055690d9db800000000000000000000000000000000000000000000000000000000000000000040000000000000000000000000000000000000000000000000000000000000002046948aae1c826cbf64cab7c9b08944ab942c7c4f4bc59f10ba09f9e437c9d4d2",
          "blockHash": "0xe8d093068dc08da5188707c948140c425ec665c1cc7614634bfdff0ac1f09daa",
          "blockNumber": "0x7010ea",
          "transactionHash": "0x1e2dbba0046ceb223424c123754651bf85c84aef42f73eac6922fe89f6f66169",
          "transactionIndex": "0x69",
          "logIndex": "0xe9",
          "removed": false
        },
        {
          "address": "0x9ddfaca8183c41ad55329bdeed9f6a8d53168b1b",
          "topics": [
            "0x1ced9348ff549fceab2ac57cd3a9de38edaaab274b725ee82c23e8fc8c4eec7a",
            "0x46948aae1c826cbf64cab7c9b08944ab942c7c4f4bc59f10ba09f9e437c9d4d2"
          ],
          "data": "0x00000000000000000000000000000000000000000000000205d977bca561ce59000000000000000000000000000000000000000000000003a62ee0ca4319ce59",
          "blockHash": "0xe8d093068dc08da5188707c948140c425ec665c1cc7614634bfdff0ac1f09daa",
          "blockNumber": "0x7010ea",
          "transactionHash": "0x1e2dbba0046ceb223424c123754651bf85c84aef42f73eac6922fe89f6f66169",
          "transactionIndex": "0x69",
          "logIndex": "0xea",
          "removed": false
        }
      ],
      "logsBloom": "0x00000004000000000000000000000000000000000020000000000000020000000000000000000000000000000000000000000000000000000000000000000000000000000000000000000008000000000000000000000000000020000020000008008000000000000000000000000000000000000000000000000010000040000000800000000000000000010000800000000020000000000000000200000000000000002000000000000000010000000000000000000000000004000000000000000002000000000000000000000000000400000000000108000000000000000010000000000000800000000000000000000000000000000000000000000000",
      "type": "0x2",
      "transactionHash": "0x1e2dbba0046ceb223424c123754651bf85c84aef42f73eac6922fe89f6f66169",
      "transactionIndex": "0x69",
      "blockHash": "0xe8d093068dc08da5188707c948140c425ec665c1cc7614634bfdff0ac1f09daa",
      "blockNumber": "0x7010ea",
      "gasUsed": "0xf0f1",
      "effectiveGasPrice": "0x6451e9efe",
      "from": "0xaa7ba678c659433b1b3ae0237180b8da7b288718",
      "to": "0x779877a7b0d9e8603169ddbd7836e478b4624789",
      "contractAddress": null
    }
  ],
  "libraries": [],
  "pending": [],
  "returns": {},
  "timestamp": 1735033571,
  "chain": 11155111,
  "commit": "5aebe5b"
}